{
  "_format": "hh-sol-artifact-1",
  "contractName": "MockV3Aggregator",
  "sourceName": "contracts/mocks/MockV3Interface.sol",
  "abi": [
    {
      "inputs": [
        {
          "internalType": "int256",
          "name": "initialAnswer",
          "type": "int256"
        }
      ],
      "stateMutability": "nonpayable",
      "type": "constructor"
    },
    {
      "anonymous": false,
      "inputs": [
        {
          "indexed": true,
          "internalType": "int256",
          "name": "current",
          "type": "int256"
        },
        {
          "indexed": true,
          "internalType": "uint256",
          "name": "roundId",
          "type": "uint256"
        },
        {
          "indexed": false,
          "internalType": "uint256",
          "name": "updatedAt",
          "type": "uint256"
        }
      ],
      "name": "AnswerUpdated",
      "type": "event"
    },
    {
      "inputs": [],
      "name": "latestAnswer",
      "outputs": [
        {
          "internalType": "int256",
          "name": "",
          "type": "int256"
        }
      ],
      "stateMutability": "view",
      "type": "function"
    },
    {
      "inputs": [],
      "name": "latestRound",
      "outputs": [
        {
          "internalType": "uint256",
          "name": "",
          "type": "uint256"
        }
      ],
      "stateMutability": "view",
      "type": "function"
    },
    {
      "inputs": [],
      "name": "latestTimestamp",
      "outputs": [
        {
          "internalType": "uint256",
          "name": "",
          "type": "uint256"
        }
      ],
      "stateMutability": "view",
      "type": "function"
    },
    {
      "inputs": [
        {
          "internalType": "int256",
          "name": "newAnswer",
          "type": "int256"
        }
      ],
      "name": "updateAnswer",
      "outputs": [],
      "stateMutability": "nonpayable",
      "type": "function"
    }
  ],
  "bytecode": "0x608060405234801561001057600080fd5b5060405161038338038061038383398181016040528101906100329190610089565b80600081905550426001819055506001600281905550506100b6565b600080fd5b6000819050919050565b61006681610053565b811461007157600080fd5b50565b6000815190506100838161005d565b92915050565b60006020828403121561009f5761009e61004e565b5b60006100ad84828501610074565b91505092915050565b6102be806100c56000396000f3fe608060405234801561001057600080fd5b506004361061004c5760003560e01c806350d25bcd14610051578063668a0f021461006f5780638205bf6a1461008d578063a87a20ce146100ab575b600080fd5b6100596100c7565b6040516100669190610163565b60405180910390f35b6100776100d0565b6040516100849190610197565b60405180910390f35b6100956100da565b6040516100a29190610197565b60405180910390f35b6100c560048036038101906100c091906101e3565b6100e4565b005b60008054905090565b6000600254905090565b6000600154905090565b8060008190555042600181905550600260008154809291906101059061023f565b9190505550600254817f0559884fd3a460db3073b7fc896cc77986f16e378210ded43186175bf646fc5f60015460405161013f9190610197565b60405180910390a350565b6000819050919050565b61015d8161014a565b82525050565b60006020820190506101786000830184610154565b92915050565b6000819050919050565b6101918161017e565b82525050565b60006020820190506101ac6000830184610188565b92915050565b600080fd5b6101c08161014a565b81146101cb57600080fd5b50565b6000813590506101dd816101b7565b92915050565b6000602082840312156101f9576101f86101b2565b5b6000610207848285016101ce565b91505092915050565b7f4e487b7100000000000000000000000000000000000000000000000000000000600052601160045260246000fd5b600061024a8261017e565b91507fffffffffffffffffffffffffffffffffffffffffffffffffffffffffffffffff82141561027d5761027c610210565b5b60018201905091905056fea26469706673582212207ef74758a12b3ee7c69f86c6cb9080bb0b2fbd5b8190985b3679bc47705d4a5064736f6c63430008080033",
  "linkReferences": {},
  "deployedLinkReferences": {}
}